:040000008A15BF2876
:10000800FF00030E8301C0000A08BF008A017008C0
:10001800A6007108A5007208A4007308A30074085C
:10002800A2000B1C3A28861E3A287F308B055F27D2
:100038005F278F018E010130B800083097003130FA
:100048009000133096008830950083160C15FB300D
:1000580083128C05320803193328B2013528013080
:10006800B2000130B300FE308B058B1704300B054E
:10007800F1007108043A031D672881012B08013E2D
:10008800F00000300318013E2C07F1007008AB00A7
:100098007108AC002708F0002808F1002908F200D0
:1000A8002A08F300F00A0319F10A0319F20A0319DE
:1000B800F30A7008A7007108A8007208A90073085D
:1000C800AA00FB308B0504300C05F1007108043AD6
:1000D800031D9528380803197E288F018E012E08E4
:1000E800F000F101700896002D089500B80109305C
:1000F800970093288F018E012D08883CF3002E0865
:10010800031C013E133CF4007408F000F101700870
:10011800960073089500083097000130B800FB304E
:100128008C0501300C05F1007108013A031D9E2869
:10013800FE308C052608F0002508F1002408F2009E
:100148002308F3002208F4003F088A00400E8300C9
:06015800FF0E7F0E0900FE
:0E015E00F201F101F001F801F3010030080098
:10016C007B15FB1FC0280130F300F201F101F001F7
:08017C00FA0DF20CFF3008003F
:08018400FA1FF213003008001D
:10018C00FB14FB1FD028FF30F300F200F100F0004D
:08019C00FA0DF20CFF3008001F
:1001A4007C180829FC18D9287C192729D228A101F0
:1001B4007208031DF9287108F2007008F10078082C
:1001C400F000F801A1157208031DF9287108F20066
:1001D4007008F100F001A11121167208031DF9281D
:1001E4007108F200F101A115720803191B292108F5
:1001F400F302031D031C1F290310F21B0829F80D29
:10020400F00DF10DF20DF30BFF281F297B1B701C61
:100214002329F81F2329F00A0319F10A0319F20A02
:10022400031D2329F20CF10CF00CF30A03192729FE
:1002340023290130FC00AF202A290230FC00B6201B
:100244002A290430FC00C2202A290830FC00C620D8
:04025400000008009E
:10025800A1017208031D41297108F2007008F1001C
:10026800F001A1157208031D41297108F200F1017E
:10027800A1112116720803194F292108F302031D41
:10028800031C53290310F21B5729F00DF10DF20D31
:10029800F30B472953290130FC00AF205A290230BB
:0E02A800FC00B6205A290430FC00C2200800D9
:1002B6008312031372087606A100F801F901730888
:1002C6007702031C7E297708FD007308F7007D0876
:1002D600F3007608FD007208F6007D08F200750846
:1002E600FD007108F5007D08F1007408FD00700836
:1002F600F4007D08F00077080319F7297208FA0060
:10030600F217F61777087302F7000319B1290830B8
:100316007702031CA729F7007408F9007508F40092
:100326007608F500F60108307702031CA729F700C6
:100336007408F9007508F400F50108307702031C0B
:10034600A7297A08F200F72977080319B1290310BB
:10035600F60CF50CF40CF90CF70BAA29A11FBE2913
:10036600F909F409F509F609F90A0319F40A031952
:10037600F50A0319F60A7908F80774080318740FC2
:10038600F00775080318750FF10776080318760F3E
:10039600F207A11BD729031CE729F20CF10CF00C7C
:1003A600F80CF30FE729F3290318EB29F809F009EC
:1003B600F109F209F80A0319F00A0319F10A0319F7
:1003C600F20A8030FA06EF290130FC00D220F92922
:1003D6000230FC00D220F9290430FC002C21F92936
:1003E6000830FC00C620F9290030FC000000080097
:0E03F6008312031335088A00340882000800C1
:1004040083120313FB017308031D77080319592A88
:1004140072087606FA007708F3077E30031C162A62
:10042400F30203185C2A192AF302031C5F2A7208D8
:10043400F8007108FC007008FD00F817F6170310A7
:10044400F201F101F0011830A1007D1C332A740877
:10045400F00775080318750FF10776080318760F6F
:10046400F207F20CF10CF00CF80CFC0CFD0C031070
:10047400A10B272AF21B432AF80DF00DF10DF20D02
:10048400F3037B1B701C552AF81F552AF00A031925
:10049400F10A0319F20A031D552AF20CF10CF00CAF
:1004A400F30A03195C2AFA1FF2130030612A01309F
:1004B400AF20612A0230C620612A0430B620000031
:0204C40008002E
:1004C600831203137008F8007108F000F101F201BD
:1004D600F301FB01FC019630F300FA01F01F792AC3
:1004E600F809F009F80A0319F00AFA177008F1007A
:0C04F6007808F000F801F2012C21080049
:1005020083120313FA017308031D7A147708031D7B
:10051200FA147A080319CD2A033A0319982A7A1889
:10052200952AF61FCB2AC92AF21FC92ACB2A72089A
:100532008039FA00F21376088039F6137A06031925
:10054200A62A7A080319C92ACB2A77087302031943
:10055200AD2A031CC12AC52A760872020319B42ADD
:10056200031CC12AC52A750871020319BB2A031C80
:10057200C12AC52A740870020319CD2A0318C52A94
:10058200FA080319CB2AC92AFA080319C92ACB2A5D
:1005920003140800031008000314031508000800E0
:1005A200710DF80DF90D7408F8027508031C750F2A
:1005B200F902F00DF10D0F30FC00710DF80DF90D7F
:1005C2007408701CEA2AF8027508031C750FF902F8
:1005D200EF2AF80775080318750FF907F00DF10DEA
:1005E200FC0BDE2A7018FB2A7408F807750803183A
:0805F200750FF9070000080075
:1005FA0083120313F1010A3071020318082B000059
:08060A000000F10A002B0800BA
:100612004B3083120313F4000330740784007E30DE
:100622000002F000F101031CF1034F08840070087E
:1006320080007108840A80000330740784007E30D1
:1006420080004B08F0004C08F1004D08F2004E0803
:04065200F3000800A9
:10065600831203135108F0005208F100F00DF10D5A
:100666007010F00DF10D70104F08F00750080318C8
:10067600013EF1077008B4007108B500FB218A112C
:100686000A12D300B40A0319B50AFB218A110A1209
:10069600D400B40A0319B50AFB218A110A12D5003F
:1006A600B40A0319B50AFB218A110A12D6005108A9
:1006B60052040319AA2B4B08F0004C08F1004D0810
:1006C600F2004E08F3005308F4005408F5005508EC
:1006D600F6005608F70002220130D102031CD203AD
:1006E6005108F4005208F500F40DF50D7410F40DE0
:1006F600F50D74104F08F40750080318013EF5076E
:100706007408B4007508B500FB218A110A12F400BA
:10071600B40A0319B50AFB218A110A12F500B40AB4
:100726000319B50AFB218A110A12F600B40A031945
:10073600B50AFB218A110A12F7005B217008D30063
:100746007108D4007208D5007308D6005A2B5308D6
:10075600F0005408F1005508F2005608F3000800AE
:1007660083120313FB01FA01F901F801A001730DCD
:10077600F80D7408F8027508031C750FF90276085F
:10078600031C760FFA027708031C770FFB020001A1
:10079600031C0130A002F30D0730FC00730DF80DA9
:1007A600F90DFA0DFB0DA00D7408731CEC2BF80265
:1007B6007508031C750FF9027608031C760FFA02FA
:1007C6007708031C770FFB020001031C0130A0020F
:1007D600FD2BF80775080318750FF9077608031837
:1007E600760FFA0777080318770FFB07000103183F
:1007F6000130A007F30DFC0BD12B720DF80DF90D8E
:10080600FA0DFB0DA00D7408731C1B2CF80275085D
:10081600031C750FF9027608031C760FFA02770897
:10082600031C770FFB020001031C0130A0022C2CD5
:10083600F80775080318750FF90776080318760F79
:10084600FA0777080318770FFB0700010318013032
:10085600A007F20D0730FC00720DF80DF90DFA0D28
:10086600FB0DA00D7408721C4A2CF8027508031CB7
:10087600750FF9027608031C760FFA027708031C37
:10088600770FFB020001031C0130A0025B2CF80766
:1008960075080318750FF90776080318760FFA0717
:1008A60077080318770FFB07000103180130A0072C
:1008B600F20DFC0B2F2C710DF80DF90DFA0DFB0D39
:1008C600A00D7408721C792CF8027508031C750FAC
:1008D600F9027608031C760FFA027708031C770FD5
:1008E600FB020001031C0130A0028A2CF8077508E0
:1008F6000318750FF90776080318760FFA077708B5
:100906000318770FFB07000103180130A007F10D4C
:100916000730FC00710DF80DF90DFA0DFB0DA00D59
:100926007408711CA82CF8027508031C750FF902CF
:100936007608031C760FFA027708031C770FFB0272
:100946000001031C0130A002B92CF8077508031832
:10095600750FF90776080318760FFA077708031854
:10096600770FFB07000103180130A007F10DFC0B00
:100976008D2C700DF80DF90DFA0DFB0DA00D7408F8
:10098600711CD72CF8027508031C750FF90276083E
:10099600031C760FFA027708031C770FFB0200018F
:1009A600031C0130A002E82CF80775080318750F20
:1009B600F90776080318760FFA0777080318770FF2
:1009C600FB07000103180130A007F00D0730FC00FB
:1009D600700DF80DF90DFA0DFB0DA00D7408701CC5
:1009E600062DF8027508031C750FF9027608031C1C
:1009F600760FFA027708031C770FFB020001031C2F
:100A06000130A002172DF80775080318750FF907AE
:100A160076080318760FFA0777080318770FFB078F
:100A2600000103180130A007F00DFC0BEB2C701829
:100A36002A2D7408F80775080318750FF907760844
:100A46000318760FFA0777080318770FFB070800D5
:100A5600831203132230FC00F801F901FA01FB01AD
:100A6600FC030319612D0310FB0CFA0CF90CF80CAE
:100A7600F30CF20CF10CF00C031C332DFC030319E0
:100A8600532D7408F80775080318750FF9077608CB
:100A96000318760FFA0777080318770FFB07372D29
:100AA6007408F80775080318750FF9077608031810
:0E0AB600760FFA0777080318770FFB07080082
:060AC400FB15FF300800E5
:0C0ACA00831203138030F6065B21080045
:100AD60083120313AB01AC0142082C02031D752DD2
:0C0AE60041082B020318782D6F2D08002A
:100AF200831203137408003A031D882D7508003A07
:100B0200031D882DFF30F0007F30F100E12D8312AC
:100B12000313FD01F901F80171087004031900348F
:100B220071087506FA00FA1BFD09FB01F51F9E2DDF
:100B3200F409F509F40A0319F50AF11FA52DF009C4
:100B4200F109F00A0319F10A71087504FA00FA1B97
:100B5200BA2DD1227B18CD2DFD1F0034F009F109E9
:100B6200F00A0319F10AF809F909F80A0319F90A4E
:100B72000034F51FC92DF11BC52D7108F90070084D
:100B8200F800F101F001AD2DF101F001F00A00349D
:100B9200F109F009FB0AAA2DF80A0319F90A7408E7
:100BA2007802031DAD2D75087902031DAD2DF901E3
:100BB200F801F00A0319F10AF11FAD2D0000FF340C
:020BC200080029
:100BC400831203137008F100F0010830FC0071086F
:100BD400F40C0318F12DFC0BEA2DF1010034031081
:100BE400F62DF40C0318F107F10CF00CFC0BF32DAB
:020BF4000800F7
:100BF600831203130716FD22EF3087050830080518
:100C0600F1007108003A031D092E012EA701A80163
:100C1600A901AA0108300805F1007108083A031D68
:100C2600152E0D2E2908F3002808F2002708F100DA
:100C3600F0012230F400F501F601F7012B25E8302A
:100C4600F4000330F500F601F701B3237008F40051
:100C56007108F5007208F6007308F700F70CF60C39
:100C6600F50CF40CF7137408F0007508F100080091
:100C760083120313F801F9011030FC00710DF80D11
:100C8600F90D7408F8027508031C750FF9020318AC
:100C9600532E7408F80775080318750FF907031023
:0A0CA600F00DF10DFC0B412E0800CB
:100CB000831203134108F4004208F5004308F600CC
:100CC0004408F700F001F101F201F3018122013043
:100CD000031C0030F00070080319732EF001F101BD
:100CE000F201F301D42E4108CB004208CC004308A6
:100CF000CD004408CE004530CF0009230030F40079
:100D00000030F5000030F6008030F700022200309D
:100D1000F4000030F5000030F6007F30F700652564
:100D20007008C1007108C2007208C3007308C400D3
:100D30000130C502031CC6037008CB007108CC004B
:100D40007208CD007308CE007030CF000730D0009D
:100D50000830D1000030D2002B237008C700710882
:100D6000C8007208C9007308CA004708C1004808D3
:100D7000C2004908C3004A08C4004508F0004608FC
:100D8000F10063221830F4007230F5003130F600C3
:100D90007E30F70002224708F4004808F5004908B1
:0A0DA000F6004A08F7005B21080086
:100DAA0083120313FB01FA01F9018030F800F10CF8
:100DBA00F00C031CE92E7408F90775080318750F5F
:100DCA00FA070318FB0A0310F01FF12E7408FA073A
:100DDA0075080318750FFB07FB0CFA0CF90CF80CD5
:100DEA00031CDC2E7B08F3007A08F2007908F10074
:060DFA007808F00008007B
:100E0000831203137008F8007108F000F101F20179
:100E1000F301FB01FC019630F300FA017008F100C8
:0C0E20007808F000F801F2012C21080015
:100E2C00FB218A110A128000840AB40A0319B50A3C
:080E3C00F003031D162F08004E
:100E4400C730831203131F05F30007304105F20076
:100E54007208F000F00D7010F00D7010F00D7010AD
:100E6400700873049F00FD221F151F1D3A2F372F92
:100E74001E08F100F00183161E08F0040030F1048E
:020E8400080064
:100E860007308312031392000C309D00FA3083164C
:0A0E960092007D3083129B000800DB
:100EA0004930831203139F00C03083169F0008004F
:0E0EB000831203138101803083168100080035
:100EBE0083120313B901BA01FF303A02031D692FE1
:100ECE00FF30390203186F2FB90A0319BA0A632FBC
:020EDE0008000A
:10100000831203137408003A031D1B287508003A65
:10101000031D1B287608003A031D1B287708003A99
:10102000031D1B28FF30F000FF30F1007F30F2007D
:10103000FF30F300BE288312031377080319AA2890
:1010400073080319AF28720876068039FA00F21780
:10105000F617A1017208F8007108FC007008FD0085
:101060007408FD027508031C750FFC027608031C4A
:10107000760FF802F801FC01FD01031C462803105D
:10108000F20CF10CF00CF80C0130A1007708F3021F
:10109000031C50287E302107F3070318B428552875
:1010A0007E302107F307031CB9281830FA07FD0D1D
:1010B000FC0DF80DF00DF10DF20DA10D7408F0020C
:1010C0007508031C750FF1027608031C760FF202F7
:1010D000760DA104211C6E287D1479287408F00770
:1010E00075080318750FF10776080318760AF207DA
:1010F0007D10FA031F307A05031D57287B1B7D1CCA
:10110000A0280310F00DF10DF20DA10D7408F002EE
:101110007508031C750FF1027608031C760FF202A6
:10112000760D21040139FD070318FC0A0319F80A9A
:10113000031DA028F80CFC0CFD0CF30A0319B428BD
:10114000FA1FF8137808F2007C08F1007D08F0001F
:101150000030BD2801308A1162258A15BD28023071
:101160008A11AF208A15BD2804308A11C6208A153D
:0E117000BD2808308A11B6208A15000008003C
:10117E0083120313A701A801A901AA01AB01AC01B7
:10118E00FA30AD00AE01AF01B001B101B201B30151
:10119E008A1150278A158A1143278A158A115827D2
:1011AE008A15E8308B00073085002030860001302C
:1011BE008700083088008312860187018801C101EB
:1011CE008A1122278A1570088312B6007108B7009B
:1011DE0003307102031DF528843070020318F928BC
:1011EE000814FA2808100130C1008A1122278A1526
:1011FE0070088312B6007108B7008A1100278A158D
:10120E007008F4007108F5007208F6007308F70014
:10121E000030F0002830F1002030F2008C30F30066
:10122E0000200030F4000030F5002030F60082304F
:10123E00F7008A1165258A150030F4000030F5009C
:10124E002030F6008230F70000207008C1007108CF
:10125E00C2007208C3007308C4008A1158268A158A
:10126E004E30F400F930F5005330F6008230F700BE
:10127E008A115B218A157008F4007108F500720856
:10128E00F6007308F7000030F000E030F100763021
:10129E00F2008A30F30000203330F4009330F50072
:1012AE000830F6008730F7008A1165258A15700818
:1012BE00BB007108BC007208BD007308BE00700848
:1012CE00F4007108F5007208F6007308F70000309C
:1012DE00F0000030F1006030F2008330F3008A112C
:1012EE0081228A15013003180030F00070080319AE
:1012FE00A3290230C1008A1122278A157008831291
:10130E00B6007108B7007008F4007108F500F50C0E
:10131E00F40CF513F50CF40CF513FA30F000F101A2
:10132E008A11D5268A15FF30F400F5018A113B2665
:10133E008A1570089B00A4299B01071CA8298711F8
:10134E00A929871500302A02031DB729003029026A
:10135E00031DB72901302802031DB729F4302702D7
:10136E00031CCF298A11FB258A157008B00071085D
:10137E00B100A701A801A901AA017108003C031D33
:10138E00CA2970081E3C031CCE290717CF29071344
:10139E0033080319082A32080319E22902302F07ED
:1013AE00F1007108AF00B4307102031CE129B301E2
:1013BE00B430AF00F12902302F02F1007108AF00F6
:1013CE007108003C031CF129B301AF019001FB3001
:1013DE0083168C0583122F08F0001930F4008A1141
:1013EE00E2258A151230F4000030F5008A117925B5
:1013FE008A157008FA3EAD0000300318013E7107E1
:10140E00AE006430C1000030C2008A116B258A150F
:04141E00E628102A82
:100EE000FF34E6345B345D34C434FF347F347E3405
:100EF0008034EF34FF347D349034E13429347D3450
:100F0000EC348234F6347C348234AD342B347C348B
:100F10000E343C34C3347B348734D13413347A34C4
:080F200041347834D3347734F6
:02400E004A2F37
:00000001FF
